:020000040800F2
:1000000000C00020414D00083D4D00083D4D000856
:0C0010003D4D00083D4D00083D4D00082E
:10001C0003460244934200D1704703F8011BF9E7F1
:10002C00F8B50D260546194F194C8021204604F0D1
:10003C0093FD0028F9D03146204604F085FD17F8D1
:10004C00016F002EF1D12B7873B1114C8021204619
:10005C0004F082FD0028F9D015F8011B204604F0AD
:10006C0073FD2B78002BF1D10D250A4E084C802105
:10007C00204604F071FD0028F9D02946204604F0F2
:10008C0063FD16F8015F002DF1D1F8BDF4560008A0
:10009C0000380140EC60000870B5037890B0002B7C
:1000AC0000F0A0800022694601E03F2A0DD0A3F1A8
:1000BC00410CBCF1190F9CBF2033DBB201F8013BA2
:1000CC0010F8013F0132002BEFD1002102F1400367
:1000DC000DEB030202F8401C494B009A9A4223D0C4
:1000EC00484A009B93423CD0474A0099914244D0E5
:1000FC00464A93426AD0464A93424DD0454B009AA9
:10010C009A4271D00D25444E444C8021204604F077
:10011C0023FD0028F9D02946204604F015FD16F8D9
:10012C00015F002DF1D135E06FF4007203F17743DC
:10013C00A3F550331344019A9A42D1D103F175437C
:10014C00029A03F5332303F6FB339A42C8D19DF888
:10015C000C30002BC4D13248FFF762FF00F0D8FB03
:10016C0018E09DF804203A2ABED12E48FFF758FF1C
:10017C000DF1050002F038FC0CE043F63022BDF81E
:10018C0004109142B4D12848FFF74AFF0DF1060044
:10019C0003F086FD10B070BD9DF80430002BADD17E
:1001AC002248FFF73DFF0D25214E1C4C8021204697
:1001BC0004F0D2FC0028F9D02946204604F0C4FCF7
:1001CC0016F8015F002DF1D110B070BD9DF8042020
:1001DC003A2A90D11748FFF723FF0DF1050003F0E1
:1001EC0073FFD7E71A4670E746F66953BDF804204B
:1001FC009A4287D19DF80630002BD1D082E700BF00
:10020C006D6F6475696F313661696F3266706761E5
:10021C0068656C7079617264C458000800380140DC
:10022C00EC58000804590008145900082C5900080F
:10023C000C5700082459000810B504F00DFB4FF4BE
:10024C00803004F029FB04F043FB012806D0BDE804
:10025C001040012144F2150004F0DABB04461020D2
:10026C0004F0DAFC022004F0CDFC002004F06AFB60
:10027C00002004F07BFB4FF4806004F06DFB4FF426
:10028C0080304FF4E01104F03BFB204604F042FBBD
:10029C00392004F0D5FB0028FAD0022004F040FBF2
:1002AC0004F048FB0828FBD1BDE81040012144F2C2
:1002BC00150004F0ADBB00BF4FF4007241F6030310
:1002CC0070B5144E82B0304601A9ADF80420ADF8DB
:1002DC00063004F047FA04224FF480630DEB020160
:1002EC0030468DF807204FF40055ADF8043004F07B
:1002FC0039FA41F20203084C01A92046ADF8063048
:10030C00ADF8045004F02EFA2946204604F09AFA6F
:10031C0002B070BD000801400010014030B5002350
:10032C004FF440224FF4E135084C85B06946204625
:10033C00CDE900530292ADF80C3004F09BFB012187
:10034C00204604F0F3FB05B030BD00BF003801407F
:10035C002DE9F041FFF770FF0D25FFF7ADFFFFF71B
:10036C00DDFF04F089F800F04DFA434E434C802138
:10037C00204604F0F1FB0028F9D02946204604F071
:10038C00E3FB16F8015F002DF1D13D4FDFF8F4804F
:10039C003A4C3D4E2021204604F0DEFB0028F9D0DB
:1003AC00204604F0D5FB05468021204604F0D4FB02
:1003BC000028F9D02946204604F0C6FB4FF4005122
:1003CC00304604F039FA0246C2F101024FF40051F2
:1003DC003046D2B204F03AFA0D2D12D00A2D10D0BC
:1003EC00082D2ED07F2D2CD0A5F120039BB25E2B97
:1003FC00D0D83B783E2BCDD85A1C3A7008F8035015
:10040C00C8E73B78002BC5D0002208F803208021D8
:10041C00204604F0A1FB0028F9D00D21204604F061
:10042C0093FB8021204604F097FB0028F9D00A2189
:10043C00204604F089FB1348FFF72EFE00233B7087
:10044C00A8E73B78002BA5D0013B3B7080212046D0
:10045C0004F082FB0028F9D02021204604F074FB24
:10046C008021204604F078FB0028F9D00821204692
:10047C0004F06AFB8EE700BF3C59000800380140CD
:10048C00A8000020680000200010014030B5164D77
:10049C0087B00DF1040C04460FCDACE80F002B68AF
:1004AC008CF800308021114804F056FB0028F9D05C
:1004BC0006AB03EB141313F8141C0C4804F044FBA8
:1004CC0080210A4804F048FB0028F9D004F00F04FE
:1004DC0004F118030DEB030414F8141C034807B0C3
:1004EC00BDE8304004F030BB385A000800380140F9
:1004FC0010B5044682B001A804F096F9BCB1012CE9
:10050C0003D0022C14BF0224082441F2034301A996
:10051C000848ADF80630ADF8044004F023F9012288
:10052C00BDF80410034804F091F902B010BD042486
:10053C00EBE700BF001001402DE9F047002506460F
:10054C008846274F274C48FA05FA0AF0010A002E74
:10055C0040D0012E41D0022E14BF4FF002094FF0B3
:10056C0008093046FFF7C4FFBAF1000F19D000227A
:10057C004946384604F06AF9626863689B1A472B4F
:10058C00FBD901224946384604F060F96268636879
:10059C009B1AB3F5077FFAD30135082DD3D1BDE8EB
:1005AC00F08752464946384604F050F96268636851
:1005BC009B1AB3F5077FFAD301224946384604F05B
:1005CC0045F9626863689B1AB32BFBD90135082D7A
:1005DC00B9D1E4E74FF00409C3E7B146C1E700BF66
:1005EC0000100140001000E070B558B301282FD066
:1005FC0002282AD002252E46174CFFF779FF00223D
:10060C003146164804F022F9626863689B1A472B3E
:10061C00FBD901223146114804F018F961680E4AE1
:10062C0053685B1A472BFBD90C4B0B499B685268E0
:10063C002B4214BF012000204B689B1AB3F5FC7FA2
:10064C00FAD370BD04252E46D6E708252E46D3E7EF
:10065C0005460646D0E700BF001000E00010014040
:10066C002DE9F843002800F08680012800F08980ED
:10067C00022800F0838002273E46FFF739FF002254
:10068C00414831468368414D3B420CBF144601241E
:10069C0004F0DCF841F2AF3268686B681B1A9342C5
:1006AC00FBD901223146384804F0D0F86968374A42
:1006BC0053685B1AB3F5197FFAD3334B99689B686F
:1006CC00394214BF012600263B420CBF01250025F0
:1006DC0051682E4A53685B1AB3F5346FFAD320274E
:1006EC00DFF8AC80DFF8AC9080212A4804F034FAB3
:1006FC000028F9D03946484604F026FA18F8017F4C
:10070C00002FF1D12046FFF7C1FE2C24224FDFF839
:10071C00848080211F4804F01FFA0028F9D021465C
:10072C00404604F011FA17F8014F002CF1D1304675
:10073C00FFF7ACFE2C24194E164F8021154804F0FF
:10074C000BFA0028F9D02146384604F0FDF916F8CA
:10075C00014F002CF1D12846FFF798FE80210D485F
:10076C0004F0FAF90028F9D05D210A4804F0ECF9FC
:10077C002846BDE8F88304273E467EE708273E4618
:10078C007BE70746064678E700100140001000E0C2
:10079C004C5A0008003801405C5A0008645A0008A2
:1007AC002DE9F84305460C46CC219046FFF7C4FED4
:1007BC00F0212846FFF7C0FE21462846FFF7BCFE75
:1007CC00002128460126FFF7B7FE08F1FF3708F194
:1007DC0007080024A1462846FFF706FF06FA09F38E
:1007EC00234309F1010900B1DCB2B9F1080FF2D1D0
:1007FC0007F8014FB845ECD12846FFF731FF01202F
:10080C00BDE8F8834FF0E021F0B50027D1F8FC2DBE
:10081C00374B42F08072C1F8FC2D5F601A6883B0D0
:10082C0042F001021A6001A803F0FEFF0F2340F210
:10083C000342304801A90D242F4D304EADF806204F
:10084C00ADF8043003F08EFF80212C4804F084F9BD
:10085C000028F9D02146304604F076F915F8014FFE
:10086C00002CF1D15B24264D244E8021234804F02A
:10087C0073F90028F9D02146304604F065F915F8D3
:10088C00014F002CF1D15B241E4D1C4E80211B48C6
:10089C0004F062F90028F9D02146304604F054F9EE
:1008AC0015F8014F002CF1D15B24174D134E80210C
:1008BC00124804F051F90028F9D02146304604F0D2
:1008CC0043F915F8014F002CF1D15B240F4D0B4E61
:1008DC0080210A4804F040F90028F9D0214630461E
:1008EC0004F032F915F8014F002CF1D103B0F0BD32
:1008FC00001000E000100140705A00080038014060
:10090C00A05A0008C45A0008FC5A0008245B0008CE
:10091C002DE9F04F0D25BF4EBF4C8DB080212046E8
:10092C0004F01AF90028F9D02946204604F00CF9F5
:10093C0016F8015F002DF1D12025B84EB64C802160
:10094C00204604F009F90028F9D02946204604F085
:10095C00FBF816F8015F002DF1D13D25B04EAE4CE1
:10096C008021204604F0F8F80028F9D029462046CA
:10097C0004F0EAF816F8015F002DF1D15025A94ECC
:10098C00A54C8021204604F0E7F80028F9D0294630
:10099C00204604F0D9F816F8015F002DF1D152254C
:1009AC00A14E9D4C8021204604F0D6F80028F9D0A9
:1009BC002946204604F0C8F816F8015F002DF1D145
:1009CC0053259A4E944C8021204604F0C5F80028FB
:1009DC00F9D02946204604F0B7F816F8015F002D2F
:1009EC00F1D14325924E8C4C8021204604F0B4F872
:1009FC000028F9D02946204604F0A6F816F8015F25
:100A0C00002DF1D144258B4E834C8021204604F0DF
:100A1C00A3F80028F9D02946204604F095F816F8DA
:100A2C00015F002DF1D13D25834E7B4C802120466A
:100A3C0004F092F80028F9D02946204604F084F8F6
:100A4C0016F8015F002DF1D144267C4B7C4F1D68BC
:100A5C00714C8021204604F07FF80028F9D03146F3
:100A6C00204604F071F817F8016F002EF1D1E8B2AE
:100A7C00FFF70CFD684C8021204604F06DF800282F
:100A8C00F9D02021644804F05FF8C5F30720FFF784
:100A9C00FDFC614C8021204604F05EF80028F9D062
:100AAC0020215D4804F050F8C5F30740FFF7EEFC39
:100ABC00594C8021204604F04FF80028F9D0202111
:100ACC00554804F041F8280EFFF7E0FC0D255D4E6B
:100ADC00514C8021204604F03FF80028F9D02946DB
:100AEC00204604F031F816F8015F002DF1D15324A3
:100AFC00554F494E8021304604F02EF80028F9D08D
:100B0C002146304604F020F817F8014F002CF1D1A3
:100B1C005FFA85FA5046FFF7B9FC20244B4F3E4E46
:100B2C008021304604F018F80028F9D021463046D0
:100B3C0004F00AF817F8014F002CF1D1364C002DB7
:100B4C0000F00682012D00F01982022D00F00B82BC
:100B5C008021204604F000F80028F9D031212E48DD
:100B6C0003F0F2FF29243A4F2B4E8021304603F03C
:100B7C00F3FF0028F9D02146304603F0E5FF17F8C3
:100B8C00014F002CF1D12846FFF76AFD2024804646
:100B9C00304F214E8021304603F0DEFF0028F9D083
:100BAC002146304603F0D0FF17F8014F002CF1D14D
:100BBC00B8F1000F00F024844F24274F164E8021EB
:100BCC00304603F0C9FF0028F9D02146304603F027
:100BDC00BBFF17F8014F002CF1D10F4C80212046A0
:100BEC0003F0BAFF0028F9D05D210B4803F0ACFFED
:100BFC00B8F1000F00F0F283332128460DF11708ED
:100C0C00FFF79AFCC14601270DF11F040026B346DD
:100C1C0024E000BF545B000800380140845B0008EE
:100C2C00006A0008A45B0008C85B0008E85B0008C9
:100C3C00105C00082C5C0008085A0008001000E04A
:100C4C00405C0008305A0008A07200084C5C000898
:100C5C00545C0008585C0008645C00082846FFF7E8
:100C6C00C3FC07FA0BF333430BF1010B00B1DEB2FB
:100C7C00BBF1080FF2D109F8016F4C45C6D1202603
:100C8C00DFF81093C44F8021384603F065FF00282D
:100C9C00F9D03146384603F057FF19F8016F002E92
:100CAC00F1D1C146BC4F19F8010FFFF7EFFB8021C2
:100CBC00384603F051FF0028F9D02021384603F0C4
:100CCC0043FF4C45EFD140460DF11E07082210F8AA
:100CDC00013F86EA030111F0010F4FEA56061CBFD3
:100CEC0086F08C06F6B2013A4FEA5303F1D18742F3
:100CFC00ECD14327DFF8A4B2DFF89C928021484660
:100D0C0003F02AFF0028F9D03946484603F01CFFAF
:100D1C001BF8017F002FF1D13046FFF7B7FB2027DE
:100D2C00DFF87CB2DFF870928021484603F014FFA4
:100D3C000028F9D03946484603F006FF1BF8017F1E
:100D4C00002FF1D19DF81F703846FFF79FFBB7427B
:100D5C0040F044832027DFF84C928F4E80213046A0
:100D6C0003F0FAFE0028F9D03946304603F0ECFEC9
:100D7C0019F8017F002FF1D12027DFF82C92864E35
:100D8C008021304603F0E8FE0028F9D03946304681
:100D9C0003F0DAFE19F8017F002FF1D17E4E18F81E
:100DAC00010FFFF773FB8021304603F0D5FE0028BE
:100DBC00F9D02021304603F0C7FE4445EFD1282757
:100DCC00DFF8E881744E8021304603F0C5FE002820
:100DDC00F9D03946304603F0B7FE18F8017F002FE2
:100DEC00F1D19DF818603D273046FFF74FFB2B2EB5
:100DFC0000F04C830D2E00F03783DFF8B481664E83
:100E0C008021304603F0A8FE0028F9D03946304640
:100E1C0003F09AFE18F8017F002FF1D12927DFF893
:100E2C0094815D4E8021304603F096FE0028F9D067
:100E3C003946304603F088FE18F8017F002FF1D1B7
:100E4C002846FFF70DFC002800F0BE8039462846E6
:100E5C0008AAFFF7A5FC002800F0B6802027DFF8D1
:100E6C0058814D4E8021304603F076FE0028F9D093
:100E7C003946304603F068FE18F8017F002FF1D197
:100E8C002746454E0DF1270B17F8010FFFF7FEFA19
:100E9C008021304603F060FE0028F9D02021304636
:100EAC0003F052FEBB45EFD10D27DFF810813A4E0F
:100EBC008021304603F050FE0028F9D039463046E8
:100ECC0003F042FE18F8017F002FF1D12846FFF7FE
:100EDC00C7FB0AAB0293002840F092802027DFF872
:100EEC00E0802D4E8021304603F036FE0028F9D0EC
:100EFC003946304603F028FE18F8017F002FF1D157
:100F0C009DF828200DF12F0302F0DF07492F0393E2
:100F1C0000F0BF80412F00F0C980462F40F0F982CD
:100F2C009DF8293003F0DF03502B40F0CB809DF867
:100F3C002A3003F0DF03472B40F0C4809DF82B30A0
:100F4C0003F0DF03412B40F0BD80DFF87880C7E071
:100F5C008021204603F000FE0028F9D032210E48F3
:100F6C0003F0F2FDFEE58021204603F0F5FD00289C
:100F7C00F9D03321084803F0E7FDF3E58021204642
:100F8C0003F0EAFD0028F9D03021034803F0DCFD22
:100F9C00E8E500BF745C0008003801407C5C000888
:100FAC00885C0008905C0008A05C0008A85C000845
:100FBC00C85C0008087C0008D45C0008EC600008E1
:100FCC00FC5C0008045E00082027DFF8B0816C4E42
:100FDC008021304603F0C0FD0028F9D03946304658
:100FEC0003F0B2FD18F8017F002FF1D12846FFF76E
:100FFC0037FB0AAB0DF1270B029300283FF46EAFC1
:10100C001A4608212846FFF7CBFB00283FF466AFB1
:10101C002027DFF870815A4E8021304603F09CFD6A
:10102C000028F9D03946304603F08EFD18F8017FC0
:10103C00002FF1D15F460DF12F08514ECDF80C80E9
:10104C0017F8010FFFF722FA8021304603F084FDD8
:10105C000028F9D02021304603F076FDB845EFD1B9
:10106C000D27DFF82481464E8021304603F074FDB5
:10107C000028F9D03946304603F066FD18F8017F98
:10108C00002FF1D19DF8282002F0DF07492F7FF4C3
:10109C0041AF9DF8293003F0DF014F2900F0C381E7
:1010AC00382B0FD14927DFF8E48019E09DF829305F
:1010BC0003F0DF01492900F0C38103F0DF03492B62
:1010CC0000F01E82552A00F0D183FF2A00F0CE8357
:1010DC00002A2F4B2F4A0DBF98469046552745277F
:1010EC004FF020092C4B264E01938021304603F003
:1010FC0033FD0028F9D04946304603F025FD019B0D
:10110C0013F8019F0193B9F1000FEED11C4E802111
:10111C00304603F021FD0028F9D03946304603F063
:10112C0013FD18F8017F002FF1D10D27DFF858803F
:10113C00134E8021304603F00FFD0028F9D03946BC
:10114C00304603F001FD18F8017F002FF1D1202764
:10115C00DFF848800A4E8021304603F0FDFC002861
:10116C00F9D03946304603F0EFFC18F8017F002F18
:10117C00F1D15E46024FDDF80C8014E0DC5C000817
:10118C0000380140F45C0008EC600008405E000888
:10119C00845D0008645D0008485F0008545F000827
:1011AC009BB1B04511D016F8013FA3F120025E2A85
:1011BC00F6D88021384603F0CFFC0028F9D0384609
:1011CC00317803F0C1FCB045EDD10D27DFF8E0829A
:1011DC00B84E8021304603F0BFFC0028F9D03946C8
:1011EC00304603F0B1FC18F8017F002FF1D1202715
:1011FC00DFF8C482AF4E8021304603F0ADFC0028EE
:10120C00F9D03946304603F09FFC18F8017F002FC7
:10121C00F1D1A84E14F8013FA3F120025E2A40F24E
:10122C00E7815BB18021304603F096FC0028F9D0B1
:10123C002E21304603F088FC5C45EBD10D269C4FEB
:10124C009C4C8021204603F087FC0028F9D03146C5
:10125C00204603F079FC17F8016F002EF1D12026FF
:10126C00964F944C8021204603F076FC0028F9D050
:10127C003146204603F068FC17F8016F002EF1D1BF
:10128C005046FFF703F920268D4F8A4C80212046CB
:10129C0003F062FC0028F9D03146204603F054FCE0
:1012AC0017F8016F002EF1D15046FFF7EFF8292601
:1012BC00844F804C8021204603F04EFC0028F9D04E
:1012CC003146204603F040FC17F8016F002EF1D197
:1012DC00029B7D491B688B4200F09581089A8A42DB
:1012EC0000F09181794A934200F00882089B774A7A
:1012FC00934200F0AF82029B754A1B68934200F048
:10130C004C82089B724A934200F047820D26684F2C
:10131C00684C8021204603F01FFC0028F9D0314690
:10132C00204603F011FC17F8016F002EF1D10023B9
:10133C000593684A059B934205DC059B0133059395
:10134C00059B9342F9DD0135042D7FF4D0AB3D258F
:10135C00614E584C8021204603F0FEFB0028F9D04A
:10136C002946204603F0F0FB16F8015F002DF1D161
:10137C0053255A4E4F4C8021204603F0EDFB00289C
:10138C00F9D02946204603F0DFFB16F8015F002D4B
:10139C00F1D13D25524E474C8021204603F0DCFB19
:1013AC000028F9D02946204603F0CEFB16F8015F41
:1013BC00002DF1D14B254B4E3E4C8021204603F0A5
:1013CC00CBFB0028F9D02946204603F0BDFB16F8CC
:1013DC00015F002DF1D10DB0BDE8F08F2026424FFA
:1013EC00344C8021204603F0B7FB0028F9D031465D
:1013FC00204603F0A9FB17F8016F002EF1D196E7F8
:10140C004E243A4F2B4E8021304603F0A5FB00288A
:10141C00F9D02146304603F097FB17F8014F002C0A
:10142C00F1D1FFF7DABB9DF82A1031297FF438AEE1
:10143C009DF82B1036297FF433AEDFF8B4804FE6DD
:10144C009DF82A1001F0DF014F297FF436AE9DF88C
:10145C002B1032297FF431AE9DF82C1030297FF4FB
:10146C002CAEDFF890803BE6DFF88C80114E8021AB
:10147C00304603F071FB0028F9D03946304603F0B2
:10148C0063FB18F8017F002FF1D1C7E4DFF86C8003
:10149C00084E8021304603F05FFB0028F9D0394616
:1014AC00304603F051FB18F8017F002FF1D1B5E461
:1014BC00EC60000800380140605F0008705F0008B5
:1014CC007C5F0008087C0008696F313661696F32F7
:1014DC0066706761FF340C00006A0008B860000891
:1014EC00085A0008CC600008A8600008685C000876
:1014FC00A85D0008C85D0008BC5C0008B45C00086E
:10150C009DF82A30382B7FF4DDAD4127DFF8DC82E3
:10151C00E6E5492F00F0BE814F2F24D0412F00F07B
:10152C00BC81472F34D0432F51D19DF8293003F083
:10153C00DF01412900F0108103F0DF034F2B7FF412
:10154C00C1AD9DF82A3003F0DF03552B7FF4BAAD03
:10155C009DF82B3003F0DF034E2B7FF4B3AD432704
:10156C00DFF88C82BCE59DF82930382B00F07881AF
:10157C0003F0DF034E2B7FF4A5AD9DF82A3003F06A
:10158C00DF03452B7FF49EAD4F27DFF86882A7E57C
:10159C009DF8293003F0DF0153290FD003F0DF034E
:1015AC00502B7FF48FAD9DF82A3003F0DF03532BC3
:1015BC007FF488AD4727DFF8408291E59DF82A102B
:1015CC0001F0DF014D29E9D1DFF8308288E5522F97
:1015DC0040F066819DF8293003F0DF03532B00F0B7
:1015EC00C580722A7FF46EAD5527DFF8148277E53B
:1015FC008021304603F0B0FA0028F9D0304621782B
:10160C0003F0A2FA18E6504600F048FD20267D4F64
:10161C007D4C8021204603F09FFA0028F9D03146FA
:10162C00204603F091FA17F8016F002EF1D15046C5
:10163C00FEF72CFF0D26754F734C8021204603F0CE
:10164C008BFA0028F9D03146204603F07DFA17F8C2
:10165C00016F002EF1D120266D4F6B4C802120465E
:10166C0003F07AFA0028F9D03146204603F06CFAE0
:10167C0017F8016F002EF1D134462746654E5046BF
:10168C0000F0D4FB013490B1642C00F0D1800497AD
:10169C00049BB342F3DC049B01330493049BB342DD
:1016AC00F9DD504600F0C2FB01340028ECD12027B4
:1016BC00DFF86481544E8021304603F04DFA002847
:1016CC00F9D03946304603F03FFA18F8017F002F65
:1016DC00F1D1E0B2FEF7DAFE2026504F4A4C8021C1
:1016EC00204603F039FA0028F9D03146204603F0A1
:1016FC002BFA17F8016F002EF1D107E6029B1B792C
:10170C00302B7FF4F3AD504601F0CCFE2026444F35
:10171C003D4C8021204603F01FFA0028F9D03146B9
:10172C00204603F011FA17F8016F002EF1D1504644
:10173C00FEF7ACFE0D26354F334C8021204603F0CE
:10174C000BFA0028F9D03146204603F0FDF917F8C2
:10175C00016F002EF1D1D9E59DF82A1001F0DF01BF
:10176C004E297FF4E9AEDFF8BC80B9E49DF82A304D
:10177C00342B00F08280722A7CD1322B7FF4A2AC05
:10178C009DF82B30332B7FF49DAC9DF82C30322BF5
:10179C007FF498ACDFF89080A2E4504602F0E8FBAE
:1017AC002026224F184C8021204603F0D5F9002822
:1017BC00F9D03146204603F0C7F917F8016F002E17
:1017CC00F1D15046FEF762FE0D26104F0E4C8021D3
:1017DC00204603F0C1F90028F9D03146204603F029
:1017EC00B3F917F8016F002EF1D18FE5805E000878
:1017FC00085F0008145D0008A05E0008B85E0008D1
:10180C00645D00088C5F000800380140EC60000843
:10181C00B05F00087F380100E45F0008106000082A
:10182C005C600008F05E0008D05E00088460000870
:10183C002026554F554C8021204603F08DF9002869
:10184C00F9D03146204603F07FF917F8016F002ECE
:10185C00F1D15BE59DF82430302B7FF44CAD52E791
:10186C00DFF82C813CE4AA2A7FF42CAC4527DFF866
:10187C00248135E4522A80D024E49DF82B10382999
:10188C007FF479AF9DF82C1035297FF474AFDFF815
:10189C00088125E49DF8293002E49DF829300CE4F8
:1018AC004F2F02D19DF8293062E6432F69D0472F84
:1018BC0064D04C2F1CD0502F33D0532F43D19DF8D4
:1018CC00293003F0DF034C2B7FF4FCAB9DF82A305E
:1018DC0003F0DF03432B7FF4F5AB9DF82B3003F0C3
:1018EC00DF03442B7FF4EEABDFF8B080FFF7F8BBDF
:1018FC009DF8293003F0DF034F2B7FF4E3AB9DF809
:10190C002A3003F0DF03522B7FF4DCAB9DF82B3035
:10191C0003F0DF03412B7FF4D5ABDFF88480FFF7B6
:10192C00DFBB9DF8293003F0DF03572B7FF4CAABE4
:10193C009DF82A3003F0DF034D2B7FF4C3ABDFF8A7
:10194C006480FFF7CDBB442F8DD19DF8293003F077
:10195C00DF03452B7FF4B6AB9DF82A3003F0DF0391
:10196C004D2B7FF4AFAB9DF82B3003F0DF034F2BE7
:10197C007FF4A8ABDFF83080FFF7B2BB9DF82930BD
:10198C000CE69DF82930D7E51C60000800380140B2
:10199C00605E0008845D0008285F0008485D000850
:1019AC00245E0008E85D0008305D00082DE9F04178
:1019BC0006460C4657484D00904602F00BFD30464B
:1019CC0002F01EFD544802F005FD204602F018FD01
:1019DC00524802F0FFFC012002F012FD76B2504892
:1019EC0002F0F8FC0021304602F0D0FD002840F057
:1019FC008B80EDB229460746304602F079FE04464C
:101A0C00484802F0E7FC284602F0FAFC464802F08F
:101A1C00E1FC204602F0F4FC414802F0DBFC0F2113
:101A2C00304602F065FE0446404802F0D3FC0F201D
:101A3C0002F0E6FC3C4802F0CDFC204602F0E0FC53
:101A4C00A5425BD13A4802F0C5FC98F8001030462C
:101A5C0002F04EFE0446374802F0BCFC384602F059
:101A6C00CFFC354802F0B6FC98F8000002F0C8FC38
:101A7C002D4802F0AFFC204602F0C2FC0F2C31D1F5
:101A8C00274802F0A7FC2946304602F031FE0446F6
:101A9C002A4802F09FFC284602F0B2FC224802F0D1
:101AAC0099FC204602F0ACFC98F80030A34229D1F6
:101ABC001F4802F08FFC5921304602F019FE0446F3
:101ACC001F4802F087FC204602F09AFC592C17D1D3
:101ADC001C4802F07FFC0121304602F057FD3846CD
:101AEC00BDE8F08118484FF0FF3702F073FC01217C
:101AFC00304602F04BFD3846BDE8F0811348F2E762
:101B0C001348F0E71348EEE7134802F063FC4FF07C
:101B1C00FF37E4E7F0600008006100080861000886
:101B2C00EC60000830610008486100085061000852
:101B3C007C6100088461000894610008B0610008B1
:101B4C00DC6100080C6200089C61000868610008F8
:101B5C00F8610008C8610008106100082DE9F04127
:101B6C0004460E464E484D00174602F033FC204604
:101B7C0002F046FC4B4802F02DFC304602F040FCD3
:101B8C00494802F027FC012002F03AFC64B24748B5
:101B9C0002F020FC0021204602F0F8FC002879D14C
:101BAC0045F00105EDB229460646204602F0A0FD9F
:101BBC0080463F4802F00EFC284602F021FC3D48CE
:101BCC0002F008FC404602F01BFC384802F002FC14
:101BDC000F21204602F08CFD8046374802F0FAFBBC
:101BEC00404602F00DFC454548D1344802F0F2FB6A
:101BFC000F21204602F07CFD0546314802F0EAFB3D
:101C0C000F2002F0FDFB2B4802F0E4FB284602F00B
:101C1C00F7FB264802F0DEFB2A483D7002F0DAFBA7
:101C2C00304602F0EDFB284802F0D4FB387802F085
:101C3C00E7FB2946204602F05BFD0546234802F0EF
:101C4C00C9FB284602F0DCFB184802F0C3FB592103
:101C5C00204602F04DFD05461D4802F0BBFB284610
:101C6C0002F0CEFB592D13D11A4802F0B3FB01211F
:101C7C00204602F08BFC3046BDE8F081164802F09D
:101C8C00A9FB0121204602F081FC4FF0FF36F2E760
:101C9C001248F4E7124802F09DFB4FF0FF36EAE7DA
:101CAC00286200080061000808610008EC60000868
:101CBC005862000848610008706200087C610008E6
:101CCC0090620008A862000894610008B8620008DD
:101CDC00C8620008E462000868610008F861000846
:101CEC00386200082DE9F0430024074683B0082130
:101CFC000DF106028DF806408DF80740FFF72EFF18
:101D0C00092138460DF10702FFF728FF9DF807302F
:101D1C009DF8065055EA032535D01E4802F05AFBB3
:101D2C00284602F09FFB1C4802F054FBDFF86C9035
:101D3C00DFF86C8001E0102C12D045FA04F313F09C
:101D4C00010FE6B204F10104F5D0484602F042FB63
:101D5C00304602F055FB404602F03CFB102CECD117
:101D6C000DF1060208213846FFF720FE09210DF17E
:101D7C0007023846FFF71AFE0A4802F02BFB2846EA
:101D8C0003B0BDE8F083084802F024FB284603B0FA
:101D9C00BDE8F08300630008EC60000824630008D1
:101DAC00386300084C6300086C630008FF2300B51F
:101DBC0083B01D210DF107028DF80730FFF7CEFE21
:101DCC00B8B9144802F006FB9DF8070002F018FBA6
:101DDC00114802F0FFFA9DF8073093B1FF2B0CBFAE
:101DEC000E480F4802F0F6FA9DF8070003B05DF8B4
:101DFC0004FB0C4802F0EEFA9DF8070003B05DF806
:101E0C0004FB094802F0E6FA9DF8070003B05DF800
:101E1C0004FB00BF9C630008EC600008F063000842
:101E2C002064000854640008C463000870B50446BC
:101E3C0082B07D4802F0CEFA7C4802F0CBFA7C48A6
:101E4C0002F0C8FA204602F0DBFA7A4802F0C2FA35
:101E5C00764802F0BFFA784802F0BCFA2046FFF749
:101E6C00A5FF0138C0B2FD2800F2BC80734802F017
:101E7C00B1FA002310210DF1050220468DF8053032
:101E8C00FFF794FD11210DF105022046FFF78EFDA1
:101E9C0012210DF105022046FFF788FD13210DF1EB
:101EAC0005022046FFF782FD654802F093FA65486B
:101EBC0002F090FA0523192120460DEB03028DF850
:101ECC000530FFF773FD0546002840F085805E481D
:101EDC0002F080FA5D4802F07DFA88231421204636
:101EEC000DF105028DF80530FFF760FD002867D174
:101EFC00152120460DF10502FFF758FD00285BD196
:101F0C00534802F067FA534802F064FA80231A210E
:101F1C0020460DF105028DF80530FFF747FD00282E
:101F2C0067D04D4802F056FA4C4802F053FAFF23A2
:101F3C0010210DF1050220468DF80530FFF736FD16
:101F4C0011210DF1050206462046FFF72FFD56EA3A
:101F5C00000314BF4248434802F03CFA424802F0E6
:101F6C0039FA424802F036FAAA26BB230021204651
:101F7C000DF106028DF806608DF80730FFF7EEFDC7
:101F8C00002845D0012120460DF10702FFF7E6FDA0
:101F9C00002832D0364802F01DFA2046FFF7A2FE88
:101FAC00224802F017FA334802F014FA324802F0D1
:101FBC0011FA284602B070BD304802F00BFAA2E7C5
:101FCC002F4802F007FA152120460DF10502FFF704
:101FDC00EDFC002894D0EFE72A4802F0FBF92846E4
:101FEC0002B070BD284802F0F5F9284802F0F2F969
:101FFC003CE7274802F0EEF996E7264802F0EAF9AA
:10200C009DF8070002F0FCF9074802F0E3F9C1E77C
:10201C00214802F0DFF99DF8060002F0F1F90248C0
:10202C0002F0D8F9AEE700BFEC600008046A0008C3
:10203C008464000898640008B864000858650008B7
:10204C008C650008B8650008206600084466000826
:10205C00F06600081C67000858670008A4670008B1
:10206C00E0670008186800084868000888680008DD
:10207C00F4680008286900080C5A0008B8660008C3
:10208C0080660008F4650008E46400082865000810
:10209C0084670008D8680008BC680008032810D8BA
:1020AC0008490B78032B0CD810B40024064A02F80C
:1020BC00330002EBC30201330B705480546010BC2C
:1020CC0070477047A9000020AC0000202DE9F04FAC
:1020DC00DFF8EC8185B098F800C0BCF1000F00F07F
:1020EC00DB8005460F4691460024764E04E0013411
:1020FC00E3B2634580F0D08016F83430AB42F6D1B1
:10210C000F2F00F2C980704802F064F9384602F0D3
:10211C0077F96E4802F05EF906EBC40A6C4802F0DF
:10212C0059F9BAF8060002F09DF96A4802F052F922
:10213C00BAF80630E4003B4113F0010B00F0B2801A
:10214C00654802F047F9384602F05AF9634802F044
:10215C0041F9634802F03EF9072F00F29D81614876
:10216C0002F038F9604802F035F94FF00C0ADFF84C
:10217C0074B10023514628460DF10E028DF80E3035
:10218C00FFF7ECFC002840F0D381584802F022F90C
:10219C009DF80E0002F034F94E4802F01BF90123B1
:1021AC0007F007029DF80E8093400092B9F1000FE2
:1021BC0000F07D8148EA03034D488DF80E3002F0A3
:1021CC0009F99DF80E0002F01BF94A4802F002F9D9
:1021DC00009A104602F014F9474802F0FBF8474801
:1021EC0002F0F8F89DF80E30434500F08F8144481A
:1021FC0002F0F0F8584602F0EDF83B4802F0EAF82D
:10220C00514628460DF10E02FFF7D0FB8046002800
:10221C0040F094813B4802F0DDF89DF80E0002F08E
:10222C00EFF8364802F0D6F8374802F0D3F85146AA
:10223C0028460DF10F028DF80F80FFF78FFC002858
:10224C0040F04981314802F0C5F89DF80F0002F0CA
:10225C00D7F89DF80F209DF80E309A4200F05A8165
:10226C002B4802F0B7F89DF80E0002F0C9F8194897
:10227C0002F0B0F8274802F0ADF8B9F1000F00F009
:10228C003181012340463444A28803FA07F71743EF
:10229C00A78005B0BDE8F08F4FF0FF38404605B081
:1022AC00BDE8F08F1C4802F095F8384602F0A8F80B
:1022BC001A4802F08FF898F80010C1BB47E100BF34
:1022CC00A9000020AC0000206C690008D87D000833
:1022DC0094690008EC600008206C0008346C00085D
:1022EC004C6C000858690008E8720008906C0008F3
:1022FC00AC6C0008C46C000864690008087C000819
:10230C00F46C0008406D0008686D0008A86D0008AA
:10231C00D46D0008F06D0008B8690008D069000899
:10232C000BF1010B5FFA8BF2914240F2108116F81F
:10233C003B20AA42F4D18B4802F04CF88A4802F0B8
:10234C0049F8384602F05CF8884802F043F88848AF
:10235C0002F040F8834802F03DF8072F00F2CE80DF
:10236C004FF0160A834802F035F8834B009300981F
:10237C0002F030F8814802F02DF8504602F040F897
:10238C007F4802F027F87F4802F024F8514628468F
:10239C000DF10F02FFF7E2FB002840F0DE807A48D7
:1023AC0002F018F89DF80F0002F02AF8774802F0B6
:1023BC0011F807F00402002A0BBF08216FF07F010F
:1023CC004FF003084FF007087148019102F002F832
:1023DC00404602F015F807F0FC086E4801F0FAFFD1
:1023EC00404602F00DF86C4801F0F4FF08F10300D0
:1023FC00C0B202F005F8624801F0ECFF9DF80F2026
:10240C000199664811438DF80F10019201F0E2FF1B
:10241C00019A104601F0F4FF614801F0DBFF9DF8D2
:10242C000F0001F0EDFF594801F0D4FF9DF80F109B
:10243C00019A914272D05B4801F0CCFF009801F0F8
:10244C00C9FF594801F0C6FF514628460DF10F024D
:10245C00FFF7ACFA002877D1544801F0BBFF4FF0DE
:10246C00010C06EBCB0208F10400D2884FEACB0337
:10247C00C0B20CFA08F108F101080A43404592B2C7
:10248C00F7D133444A48DA8001F0A4FF494801F0FF
:10249C00A1FF072F7FF663AE474801F09BFF47482B
:1024AC0001F098FF4FF00D0ADFF80CB161E628EA55
:1024BC00030343488DF80E3001F08CFF9DF80E009D
:1024CC0001F09EFF3F4801F085FF009A104601F095
:1024DC0097FF3D4881E63D4801F07CFFB9F1000FC4
:1024EC007FF4CFAE012240463444A38802FA07F7AA
:1024FC0023EA0707A78005B0BDE8F08F1D4801F05F
:10250C0069FF2D4B4FF0170A009330E7304801F06C
:10251C0061FF6CE62F4801F05DFFAEE62E4801F03E
:10252C0059FF134801F056FF154801F053FF82E79D
:10253C002A4801F04FFF4FF0FF38AFE6284801F072
:10254C0049FF4FF0FF38A9E6264801F043FF264823
:10255C0001F040FF4FF0FF38A0E6244801F03AFFAD
:10256C00F5E700BFF86900082C6A00084C6A0008FF
:10257C00546A00085C6E0008586900085C6A000820
:10258C00087C0008646A0008B06A0008EC60000867
:10259C00D86A0008F86A00080C6B0008106B000879
:1025AC00246B0008646B0008D87D00089C6B000845
:1025BC00CC6B00084C6C000854690008E8720008E9
:1025CC00AC6C0008C46C00085C690008386E00082C
:1025DC00CC6C0008C46D0008386B0008746C0008E3
:1025EC00206D0008806B0008F86B0008946A0008E6
:1025FC0070B5214B82B01D78D5B10E4600231F4C0F
:10260C0003E00133DAB2AA4212D214F83320824228
:10261C00F7D10F2E0CD804EBC304E388334113F02D
:10262C00010309D0A088304100F0010002B070BD58
:10263C004FF0FF3002B070BD072E94BF0021012176
:10264C000DF107028DF80730FFF788FA0028EFD15B
:10265C0001239DF8072006F007018B401A4214BF96
:10266C0001200020072E89BFA378A27043EA022222
:10267C00628002B070BD00BFA9000020AC00002039
:10268C001C4B1A789AB370B5054600241A4E82B0CA
:10269C0003E00134E3B2934226D216F83430AB4255
:1026AC00F7D1002128460DF106028DF806108DF8A1
:1026BC000710FFF753FA20B106EBC404608802B090
:1026CC0070BD012128460DF10702FFF747FA0028DB
:1026DC00F2D19DF807009DF8062006EBC40442EAEF
:1026EC000020608002B070BD002002B070BD1046AA
:1026FC00704700BFA9000020AC000020194B1A78CD
:10270C0062B3F0B505460F460024174E83B003E0C4
:10271C000134E3B293421DD216F83430AB42F7D1F8
:10272C000C2128460DF106028DF80670FFF73EF9D4
:10273C0080B93B0A28460D210DF107028DF80730B0
:10274C00FFF734F930B906EBC404E1880F40A780D9
:10275C0003B0F0BD4FF0FF3003B0F0BD4FF0FF30D1
:10276C00704700BFA9000020AC000020824B1A78F3
:10277C00002A00F0FE802DE9F047054600247F4E2C
:10278C0084B004E00134E3B2934280F0C28016F8C6
:10279C003430AB42F6D1162128460DF10602FFF774
:1027AC00DDF9002840F0A580172128460DF107021D
:1027BC00FFF7D4F9002840F0A2800C2128460DF137
:1027CC000A02FFF7CBF9002840F0A9800D2128461A
:1027DC000DF10B02FFF7C2F90146002840F095807D
:1027EC00284602AAFFF7BAF9002840F0BA80012166
:1027FC0028460DF10902FFF7B1F9002840F0B58029
:10280C009DF806309DF8088013F0080F0CBF0025CA
:10281C000F251B069DF8073048BF45F0F0051F0734
:10282C0048BF45F470659DF80A7018069DF80B308A
:10283C0048BF45F4704547EA03279DF809305048D6
:10284C0048EA032806EBC403DD809F80A3F80280CE
:10285C0001F0C0FD4B4801F0BDFD4B4801F0BAFD45
:10286C00484801F0B7FD494801F0B4FD16F83400B2
:10287C0001F0C6FD464801F0ADFD464801F0AAFD49
:10288C00454801F0A7FD0024DFF810A1DFF81091F6
:10289C00444E0FE0444801F09DFD47FA04F3DA077B
:1028AC0023D5424801F096FD3548013401F092FDE4
:1028BC00102C3AD0092C02D8504601F08BFD494619
:1028CC00224603A802F086FA03A801F083FD3046E5
:1028DC0001F080FD45FA04F3D9073548DAD401F04C
:1028EC0079FD48FA04F3DB07DBD4324801F072FDC2
:1028FC00DAE7314801F06EFD04B0BDE8F0872F48EF
:10290C0001F068FD04B0BDE8F0872D4801F062FDD0
:10291C00F2E72C4804B0BDE8F04701F05BBD2A4853
:10292C0001F058FD04B0BDE8F087284801F052FDD5
:10293C00274801F04FFD404601F094FD254801F079
:10294C0049FD384601F08EFD234801F043FD284631
:10295C0001F088FD214801F03DFD0A4801F03AFDE7
:10296C00CAE71F4801F036FDC6E71E4801F032FDEC
:10297C00C2E7144801F02EBDA9000020AC000020D5
:10298C00EC600008046A00086C6F00088C6F00088B
:10299C00305A0008946F0008A86F0008E06F000818
:1029AC00BC6F0008C06F0008C46F0008CC6F000833
:1029BC00DC6F0008D46F0008846E0008AC6E000851
:1029CC00FC6E00083C700008D46E0008E46F000830
:1029DC00F86F0008087000081870000828700008CC
:1029EC00246F0008486F00082DE9F041044684B0BC
:1029FC009D4801F0EFFC204601F0ECFC9B4801F0F7
:102A0C00E9FC2578303DEDB2032D00F2828063782D
:102A1C003A2B78D1A61C04223046954902F004FAD0
:102A2C00002833D1E279A679A2F13003DBB2303E33
:102A3C00092BF6B273D907343A2A64D104228D4992
:102A4C00601C02F0F1F90446B4FA84F228463146CF
:102A5C005209FFF73BFB00286AD1874801F0BAFC0A
:102A6C00304601F0CDFC854801F0B4FC844B854820
:102A7C00002C18BF184601F0ADFC834801F0AAFCED
:102A8C00824804B0BDE8F04101F0A4BC04223046F9
:102A9C007F4902F0C9F938BBE379A479303BDBB24A
:102AAC00303C092BE4B205D804EB840403EB44045A
:102ABC0004F0FF0428462146FFF79AFD051E79DB3A
:102ACC00744801F087FC204601F09AFC6B4801F039
:102ADC0081FC6B4B6B48002D08BF184601F07AFC4B
:102AEC00694801F077FCCBE7092230466A4902F0CD
:102AFC009BF908BBE67A303EF6B2032E00F2DB817E
:102B0C00237B3A2B5AD0654804B0BDE8F04101F064
:102B1C0061BC634804B0BDE8F04101F05BBC06EB5E
:102B2C00860603EB4606227A06F0FF06083483E796
:102B3C005C4801F04FFCA3E730465B4902F06AF9B0
:102B4C00002800F08D803046584902F063F90028C7
:102B5C0000F07E8109223046554902F065F90028C3
:102B6C0040F0B680E37A302B00F0C181A3F1300243
:102B7C00092A00F2B18300260B3406EB860603EB20
:102B8C00460614F8013F303EA3F13002092AB6B2D2
:102B9C00F3D931462846FFF7B1FD002840F09F815C
:102BAC00444801F017FC304601F05CFC364801F05B
:102BBC0011FC65E7404801F00DFC61E7637B04F113
:102BCC000D00B3F16F0406D14378B3F1750404BF63
:102BDC008378A3F17404022E34BF162717272846D6
:102BEC0016F0010F394603AA0CBF4FF003084FF043
:102BFC000708FEF7B3FF002840F0758139462846D8
:102C0C00012303AA002C40F031819DF80C4003FAFB
:102C1C0008F323438DF80C30FEF7C8FE002840F073
:102C2C005881264801F0D6FBB400304601F0E8FB91
:102C3C00E4B2234801F0CEFB204601F0E1FB214831
:102C4C0001F0C8FBE01CC0B201F0DAFB1E4801F039
:102C5C00C1FB1E4801F0BEFB0B4801F0BBFB0FE7AC
:102C6C002846FFF783FD0BE76470000870700008BE
:102C7C00AC700008B4700008BC700008C870000884
:102C8C0058700008CC6F0008EC6000080C7C000841
:102C9C00E8700008C0700008087100089470000803
:102CAC0074700008CC700008D0710008D87100084E
:102CBC00F0710008FC710008F0700008287C000816
:102CCC00347C00080C6B00083C7C0008546A00083B
:102CDC0030469D4902F09EF8002800F07381304682
:102CEC009A4902F097F8002800F0DD8130469849A7
:102CFC0002F090F80746002800F0DF8107223046EA
:102D0C00944902F091F8002840F0C082A37A3A2B43
:102D1C0040F0E482237BE67A303BDBB2303E092B79
:102D2C00F6B205D806EB860603EB460303F0FF0666
:102D3C00647A303CE4B2032C00F2DB820F2E00F2FA
:102D4C00CF82854801F046FB204601F059FB8348B1
:102D5C0001F040FB304601F053FB814801F03AFB97
:102D6C00022C00F03B83032C00F04483012C00F078
:102D7C003B837C4801F02EFBDFF8EC810127B74048
:102D8C00BFB27A4801F026FB384601F06BFB78485D
:102D9C0001F020FB41F20303404601A9ADF80630D7
:102DAC00ADF8047001F0DEFC3946404601F04AFDF6
:102DBC00704801F00FFB002342F20F720293029B4A
:102DCC00934205DC029B01330293029B9342F9DD93
:102DDC003946404601F038FD674801F0FBFA002304
:102DEC0042F20F720393039B934205DC039B013366
:102DFC000393039B9342F9DD2846FEF7D7FF054664
:102E0C005E4801F0E7FA284601F0FAFA584801F05A
:102E1C00E1FA6B1EDBB2FD2B00F26482584801F024
:102E2C00D9FA584801F0D6FA204601F0E9FA4B4895
:102E3C0001F0D0FA304601F0E3FA4D4801F0CAFA3D
:102E4C004046394601F0FEFC4F4801F0C3FA17E644
:102E5C002846FFF715FC04464C4801F0BBFA204607
:102E6C0001F000FB424801F0B5FA09E603FA08F854
:102E7C009DF80C3023EA08038DF80C30FEF796FD14
:102E8C0038BB434801F0A6FAB400304601F0B8FA5A
:102E9C00E4B2404801F09EFA204601F0B1FA3E48F7
:102EAC0001F098FAE01CC0B201F0AAFA3B4801F01C
:102EBC0091FA3B48CEE63B4801F08CFA3A4801F0D7
:102ECC0089FA3A4801F086FA394801F083FA394810
:102EDC001AE6394801F07EFA04B0BDE8F0813748B3
:102EEC0001F078FACCE5364801F074FAF4E7227B6D
:102EFC0002F0DF02582A7FF43EAE637B0D34002BC8
:102F0C0000F07E82002613E0A3F137020528A3F11E
:102F1C00610142EA061214D905293FF63AAE573B35
:102F2C0043EA06139EB214F8013F002B3FF431AE76
:102F3C00A3F13002D1B20929A3F1410042EA0612F1
:102F4C00E2D896B2EFE700BF387200088875000827
:102F5C00B0750008B477000830780008C86900081C
:102F6C004C7800085878000800080140C878000820
:102F7C00EC600008E0780008047900082479000867
:102F8C00447900087C790008047A0008E071000894
:102F9C00287C0008347C00080C6B00083C7C000882
:102FAC005C70000814710008347100084C71000842
:102FBC00647100087C710008B07100081C72000874
:102FCC00947100082846FEF7F1FE0446CA4801F049
:102FDC0001FA204601F014FAC84801F0FBF9631E0F
:102FEC00DBB2FD2B3FF64CADC54801F0F3F9C548FB
:102FFC0001F0F0F9C44801F0EDF9284601F000FAAF
:10300C00C04801F0E7F9C14801F0E4F98523192122
:10301C00284603AA8DF80C30FEF7C8FC002840F0B7
:10302C0002828824BA4801F0D5F9BA4801F0D2F9E5
:10303C001421284603AA8DF80C40FEF7B7FC002893
:10304C0040F0ED81B44801F0C5F9B44801F0C2F983
:10305C001521284603AA8DF80C40FEF7A7FC002882
:10306C0040F0D981AE4801F0B5F9AE4801F0B2F9A3
:10307C0080231A21284603AA8DF80C30FEF796FC03
:10308C00002840F0C081A84801F0A4F9A74801F03D
:10309C00A1F9A74801F09EF9A64801F09BF9A648B2
:1030AC0001F098F9ECE42846FEF71CFE00287FF4AA
:1030BC00E7ACA24801F08EF9E2E4904801F08AF9FD
:1030CC009F4801F087F99F4801F084F9284601F0E8
:1030DC0097F98A4801F07EF9994801F07BF99A48F2
:1030EC0001F078F9394603AA2846FEF737FD9DF81A
:1030FC000C0001F085F9814801F06CF9934801F05E
:10310C0069F903AA01212846FEF728FD9DF80C0059
:10311C0001F076F9794801F05DF98D4801F05AF922
:10312C0003AA0C212846FEF719FD9DF80C0001F0AE
:10313C0067F9724801F04EF9864801F04BF903AA81
:10314C000D212846FEF70AFD9DF80C0001F058F9F8
:10315C006A4801F03FF9804801F03CF903AA1421B8
:10316C002846FEF7FBFC9DF80C0001F049F97B4862
:10317C0001F030F97A4801F02DF903AA15212846FF
:10318C00FEF7ECFC9DF80C0001F03AF9734801F0E5
:10319C0021F9744801F01EF903AA16212846FEF7FE
:1031AC00DDFC9DF80C0001F02BF96F4801F012F9D1
:1031BC006E4801F00FF903AA17212846FEF7CEFC42
:1031CC009DF80C0001F01CF9674801F003F9684800
:1031DC0001F000F903AA18212846FEF7BFFC9DF860
:1031EC000C0001F00DF9634801F0F4F8624801F0AD
:1031FC00F1F803AA19212846FEF7B0FC9DF80C0043
:10320C0001F0FEF85B4801F0E5F85C4801F0E2F8EB
:10321C0003AA1A212846FEF7A1FC9DF80C0001F028
:10322C00EFF8574801F0D6F8564801F0D3F803AA46
:10323C0008212846FEF792FC9DF80C0001F0E0F8FE
:10324C002E4801F0C7F8504801F0C4F803AA092130
:10325C002846FEF783FC9DF80C0001F0D1F82748B6
:10326C0001F0B8F8494801F0B5F81D2103AA284629
:10327C00FEF774FC9DF80C0001F0C2F8444801F014
:10328C00A9F8444801F0A6F8FFF7FABB424801F050
:10329C00A1F8424801F09EF8414801F09BF84148E2
:1032AC0001F098F8404801F095F8404801F092F888
:1032BC003F4801F08FF83F4801F08CF83E4801F090
:1032CC0089F83E4801F086F83D4801F083F83D4806
:1032DC0001F080F8FFF7D4BB00265AE43A4813E417
:1032EC003A4811E43A4801F075F83A4801F072F89E
:1032FC00A6E5394808E400BF40720008EC600008FD
:10330C0054720008545B000884720008A87200080C
:10331C001C73000858730008BC730008E0730008A5
:10332C004474000868740008B4740008D47400086D
:10333C00085A0008047500082875000894750008E0
:10334C00046A0008B8750008D8750008F475000800
:10335C00107600082C760008487600086476000881
:10336C00707600088C760008A8760008B8760008FD
:10337C00D4760008F076000804770008207700085F
:10338C003C770008487700086877000888770008C1
:10339C00A47700080C5A0008387A0008547A000800
:1033AC00647A0008847A00089C7A0008BC7A0008C9
:1033BC00D47A0008EC7A0008247B00085C7B0008B7
:1033CC008C7B0008CC7B0008BC77000810780008C8
:1033DC00A8790008E0790008F0770008144800F09C
:1033EC00F9FFDFF85080C9E4134800F0F3FFDFF871
:1033FC004C80C3E4124800F0EDFFDFF84880BDE4D8
:10340C001E46FFF7C6BB104800F0E4FF0F4800F063
:10341C00E1FFFFF735BB0E4800F0DCFFF6E70D4887
:10342C0000F0D8FFF2E70C4800F0D4FFEEE700BF45
:10343C00907800080010014074780008000C0140DE
:10344C00AC780008001401409474000864750008FE
:10345C001874000890730008F072000870B50D46DF
:10346C0044B200212046164601F090F8690041F064
:10347C0001012046C9B201F03BF90021204601F0C0
:10348C0037F900210546204601F032F90346204663
:10349C001C46012144EA052401F078F80020348010
:1034AC0070BD00BF032812D870B5094D2C78032CC1
:1034BC000CD86A2304FB03F3064E6422F054023347
:1034CC000021F0180134FCF7A3FD2C7070BD70477F
:1034DC00CC000020D000002070B50646002482B03D
:1034EC004A4800F077FF4A4800F074FF494800F062
:1034FC0071FF304600F084FF474800F06BFF4448F2
:10350C0000F068FF454800F065FF21460DF106020A
:10351C003046ADF80640FFF7A1FFBDF80650404815
:10352C0000F058FF284600F09DFF384800F052FF8D
:10353C0040F224439D4263D13A4875B200F04AFFF1
:10354C00394800F047FF2146284601F01FF820219A
:10355C00284601F0CDF82146284601F0C9F8032190
:10356C00284601F0C5F80121284601F00FF82F4834
:10357C0000F030FF2E4800F02DFF4024002128469B
:10358C0001F004F82146284601F0B2F871212846D2
:10359C0001F0AEF80234E021284601F0A9F8E4B2BB
:1035AC000121284600F0F2FF682CE7D1214800F0F9
:1035BC0011FF214B1878B8B1204C0023224603E0B0
:1035CC000133D9B281420FD211786A32B142F7D1AC
:1035DC006A214FF0073201FB03F35233E118E2503A
:1035EC004A608A60CA600A61094800F0F3FE144818
:1035FC0000F0F0FE134800F0EDFE002002B070BDAC
:10360C00114800F0E7FE4FF0FF30F7E7EC600008E0
:10361C00046A0008447C00085C7C00087C7C000880
:10362C00AC7C00080C7D00082C7D0008647D000833
:10363C00987D0008E07D0008CC000020D000002020
:10364C00187E00080C5A0008CC7C000813292DD8D1
:10365C00002370B50E4682B04031C9B20DF106029E
:10366C00ADF806300446FFF7F9FE0346D8B9114A07
:10367C00BDF806001578C0F30B0095B10E490A464B
:10368C0004E001335FFA83FC65450AD992F800C067
:10369C006A32A445F5D1352202FB036301EB4303E7
:1036AC00588002B070BD4FF0FF30FAE74FF0FF309A
:1036BC00704700BFCC000020D0000020434B19788D
:1036CC00002900F081802DE9F04F414F064600247F
:1036DC003B46B7B003E00134E2B2914271D91A789B
:1036EC006A33B242F7D13B4B3B48059300F072FE74
:1036FC003A4800F06FFE3A4800F06CFE394800F092
:10370C0069FE364800F066FE6A2300254FF0040B74
:10371C0003FB0477DFF8D080DFF8D090DFF8D0A07F
:10372C00663759463046FFF791FF2A460446414614
:10373C0005F11003CDF800B006A801F04BFB06A86C
:10374C0000F048FE6FF47570A3B2A3F60D02002CC6
:10375C002849DFF8A4C0184492B22CDBB3F57A6F79
:10376C0026D8C62821D9C72A2ABF614603200020A3
:10377C00AB00DA1CCDE9002402912A463870494688
:10378C001EA801F027FB1EA800F024FE0135042D15
:10379C0007F1010703D005AB15F803B0C1E71748D3
:1037AC0037B0BDE8F04F00F015BE01201449DFE73B
:1037BC0051460220DCE7FF2312483B7000F00AFE62
:1037CC00E4E737B0BDE8F08F704700BFCC000020B5
:1037DC00D000002004070C11EC600008046A0008FB
:1037EC00987E0008BC7E0008F07E00084C7F000824
:1037FC00807E0008787E0008907E00080C5A000835
:10380C00887E0008247F0008B94B1978002900F045
:10381C00F2812DE9F04FB74E814600253346A7B013
:10382C0004E00135EAB2914240F2DF811A786A3342
:10383C004A45F6D1B04800F0CDFDB04800F0CAFDC5
:10384C00AF4800F0C7FDAD4800F0C4FD6A2300246A
:10385C0003FB05F5AB49725D06A801F0BBFA06A89F
:10386C0000F0B8FDA848A24600F0B4FD663506EBA2
:10387C00050B1BF8015BA04800F0ACFD032D00F21A
:10388C008980A24B524653F82530A14906A801F075
:10389C00A1FA06A800F09EFDE31C22469D49019367
:1038AC00009406A801F096FA06A800F093FD012DED
:1038BC0000F09380022D00F0EF80032D7ED196480E
:1038CC0000F088FD954800F085FD954800F082FDDC
:1038DC00944800F07FFD944800F07CFDE2B2531C4C
:1038EC000432D2B2DBB293428CBF012304232746AD
:1038FC00013B621CDBB21344DFF830820593F9B252
:10390C004846FFF7A3FE034623EAE373A3F50065DD
:10391C0088FB05ECED17C5EBAC0588FB05CE4FEA33
:10392C00E57CCCEBAE0CCDF800C00CEB8C0CA5EB15
:10393C004C05002DB8BF6D4201956FF4E16540F266
:10394C00562603EB050CDFF8E8E17A4D3A46B44510
:10395C0088BF7546784906A8029501F03BFA06A87F
:10396C0000F038FD059B0137BB42C8D10AF1010AB2
:10397C00BAF1040F04F104047FF47BAF6F4800F03C
:10398C0029FD6F4800F026FD5C4800F023FD27B0B0
:10399C00BDE8F08F52466B4B5D4906A801F01AFA50
:1039AC0006A800F017FDE31C22465A490094019327
:1039BC0006A801F00FFA06A800F00CFD624800F012
:1039CC0009FD0AF1010A614800F004FDBAF1040F87
:1039DC0004F104047FF44DAFD0E75D4800F0FAFC2D
:1039EC005C4800F0F7FC4E4800F0F4FC5A4800F03C
:1039FC00F1FC5A4800F0EEFCE2B2531C0432D2B295
:103A0C00DBB293428CBF012304232746013B621C8B
:103A1C00DBB203EB0208F9B24846FFF717FE034688
:103A2C00DFF83CE1DFF83CC142F21075642BC8BFF3
:103A3C00F4464FF47A7623EAE373CDF808C01FFA04
:103A4C0083FC05FB0CFC484D3A46A5FB0CE5ACEBA6
:103A5C00050C05EB5C05DFF814C1C5F3CF25ACFBF9
:103A6C0005EC4FEA9C1E06FB1E55ADB24049CDF845
:103A7C0000E006A8019501F0ADF9013706A800F0A9
:103A8C00A9FC4745C7D10AF1010ABAF1040F04F1A8
:103A9C0004047FF4EEAE71E7364800F09BFC364828
:103AAC0000F098FC1E4800F095FC344800F092FCA5
:103ABC002A4800F08FFCE2B2531C0432DBB2D2B2C3
:103ACC0093428CBF012304232646013B651CDBB2C9
:103ADC002B4F1D444846F1B2FFF7B8FD031E53DBD4
:103AEC0040F2666293426ADC0022042125484FE0D2
:103AFC00CC000020D0000020EC600008A87F00085B
:103B0C00E87F00081C8000082880000890860008C8
:103B1C006880000880800008388200086C820008E9
:103B2C00148100089C820008CC82000867666666D7
:103B3C00A07F0008987F0008A0830008CC830008B1
:103B4C001084000854840008F882000820830008C0
:103B5C00B4800008E4800008508100087C810008D3
:103B6C007C7F0008847F000801011000D34D621097
:103B7C0048830008A8810008D88100080C8200083E
:103B8C00CDCCCCCC907F0008002304211A461B48D6
:103B9C00CDE9012000913246194906A801F01AF925
:103BAC00013606A800F016FCAE4293D10AF1010AC8
:103BBC00BAF1040F04F104047FF45BAEDEE6A3F269
:103BCC006662104902EB8202520181FB0201114430
:103BDC00D217C2EBE1222832A7FB0201C90801EB84
:103BEC008100A2EB40020848D2E7084827B0BDE8A4
:103BFC00F04F00F0EFBB054800F0ECBB907F0008E5
:103C0C007483000881AB62D57C7F00083C7000088F
:103C1C00002130B5044683B00DF10602ADF8061054
:103C2C00FFF71CFC1648BDF8065000F0D3FB1548F6
:103C3C0000F0D0FB144800F0CDFB124800F0CAFB9A
:103C4C00124800F0C7FB204600F0DAFB0C4800F0ED
:103C5C00C1FB0F4800F0BEFB284600F003FC40F20D
:103C6C0024439D420CBF0B480B4800F0B3FB0B48A0
:103C7C0000F0B0FB034803B0BDE8304000F0AABB35
:103C8C00EC600008046A00085C8400088C6F000873
:103C9C007884000888840008A0840008BC8400088C
:103CAC00F0B5054693B0944800F094FB284600F01C
:103CBC0091FB924800F08EFB2E78303EF6B2032E2C
:103CCC0000F291806B783A2B40F08780AF1C052274
:103CDC0038468B4901F0A8F8044600283ED1EB7910
:103CEC000735A3F13002092A0FD804EB840403EB47
:103CFC00440415F8013F303CA3F13002092A04F0CA
:103D0C00FF04F2D9132C00F2A68021463046FFF7AF
:103D1C009DFC031EC0F2A18042F2107E4FF47A7C0F
:103D2C009FB20EFB07F7774D2246A5FB07543F1BAE
:103D3C00754E04EB5704C4F3CF24A6FB0465AD0900
:103D4C000CFB1544A4B2714902A80095019401F032
:103D5C0041F802A800F03EFB13B0F0BD0622384635
:103D6C006B4901F061F8002843D0082238466949B4
:103D7C0001F05AF8002872D1AB7A0A35A3F130025F
:103D8C00092A0CD800EB800003EB400015F8013F2A
:103D9C003038A3F13002092A00F0FF00F2D93A2B97
:103DAC001BD16A780135A2F13003092B00F29980FE
:103DBC00002303EB830302EB430315F8012F303B85
:103DCC00A2F1300109299BB2F3D9132803D842F28E
:103DDC00107293423AD9504800E0504813B0BDE8F5
:103DEC00F04000F0F7BA4E4813B0BDE8F04000F0D8
:103DFC00F1BA2B7A0835A3F13002092A0CD800EB62
:103E0C00800003EB400015F8013F3038A3F130027D
:103E1C00092A00F0FF00F2D93A2BDED16A7801357D
:103E2C00A2F13003092B5CD8002303EB830302EBD4
:103E3C00430315F8012F303BA2F1300109299BB245
:103E4C00F3D91328C7D8B3F5805FC4D2354800F036
:103E5C00C1FA3548C2E73548C0E73548BEE73846B1
:103E6C00344900F0D7FF48B33846334900F0D2FF4D
:103E7C00002839D03846314900F0CCFF20B3384601
:103E8C002F4900F0C7FF30B32E4800F0A3FA2E489C
:103E9C0000F0A0FA2D4800F09DFA2D4800F09AFA97
:103EAC002C4800F097FA2C4800F094FA2B4800F0BC
:103EBC0091FA2B4800F08EFA2A488FE7304613B05F
:103ECC00BDE8F040FFF7A0BC3046FFF705FB88B912
:103EDC00254800F07FFA304613B0BDE8F040FFF7FC
:103EEC00EDBB1328B2D976E7304613B0BDE8F040ED
:103EFC00FFF78EBE1D4871E7D08400087070000873
:103F0C00DC84000801011000D34D62100485000808
:103F1C00488500088C8500085085000894700008BE
:103F2C0074700008447E00086C850008E484000866
:103F3C0028850008D07100083872000898850008A0
:103F4C00CC850008387A0008547A0008D885000817
:103F5C00F485000814860008348600084C86000896
:103F6C006086000874860008A0850008B8850008E3
:103F7C00032816D838B50B4D2C78032C10D80021FB
:103F8C00094A04EB84139B00D054581C134410446E
:103F9C00A3F802114FF480720134FCF739F82C703D
:103FAC0038BD7047780200207C020020364B19780F
:103FBC00002966D02DE9F041344D00242B4603E056
:103FCC000134E2B2914257D91A7803F582738242D6
:103FDC00F6D12F4800F0FEF92E4800F0FBF92E48E0
:103FEC0000F0F8F92B4800F0F5F904EB84142B4899
:103FFC0000F0F0F915F8240000F002FAA4002848AB
:10400C0000F0E8F92544274800F0E4F9B5F802017E
:10401C0000F028FA1E4800F0DDF9234800F0DAF928
:10402C00224800F0D7F9224800F0D4F90024DFF838
:10403C008480214F164E404600F0CCF9E0B200F0DF
:10404C00DFF9384600F0C6F915F8010F00F0D8F981
:10405C000134304600F0BEF9102CECD10D4800F0C4
:10406C00B9F9164800F0B6F9154800F0B3F9BDE8F7
:10407C00F041084800F0AEB91248BDE8F04100F03C
:10408C00A9B9104800F0A6B9780200207C020020E3
:10409C00EC600008006A0008A08600088C6F00081D
:1040AC00305A0008C4860008D8860008F08600083C
:1040BC0000870008247000089C770008108700080F
:1040CC003C8700083C700008F8B50546A84800F08D
:1040DC0081F9284600F07EF9A64800F07BF92C788F
:1040EC00303CE4B2032C00F28A806B783A2B56D128
:1040FC00AE1C08223046A04900F096FE00BBA97AFF
:10410C0005F10A0C302900F09080002507E0052B02
:10411C004AD8CBB243EA05131CF8011FDDB2A1F15A
:10412C003003DBB2092BA1F16102F3D9052AA1F10D
:10413C004103A1F15702A1F13701E8D8D3B2E9E765
:10414C00092230468D4900F06FFE00285CD1E97AD7
:10415C0005F10B0C302907D12B7B03F0DF03582B17
:10416C0004BF697B05F10D0C002507E005286DD80F
:10417C00D3B243EA05131CF8011FDDB2A1F13003E1
:10418C00DBB2092BA1F16102F3D9052AA1F141009F
:10419C00A1F15703A1F13702E8D8DBB2E9E778487F
:1041AC00BDE8F84000F016B9764B1878002845D0D9
:1041BC00754F00233A4603E00133D9B288423DD90A
:1041CC00117802F58272A142F6D103EB831307EB4F
:1041DC0083032B446D485C7800F0FCF8284600F013
:1041EC000FF96B4800F0F6F8204600F009F9694821
:1041FC0000F0F0F8BDE8F840674800F0EBB867480D
:10420C00BDE8F84000F0E6B83046654900F002FE23
:10421C00002800F086803046624900F0FBFD002843
:10422C0068D12046FFF7C2FEE4E7EB7A03F0DF0328
:10423C00582B04BF297B05F10C0C66E75A4800F09B
:10424C00C9F8BDE8F840544800F0C4B83A29A6D1E2
:10425C009CF801000CF10103302809D19CF80220D4
:10426C0002F0DF02582A04BF9CF803000CF1030390
:10427C00002607E0052A16D8C2B242EA061213F845
:10428C00010FD6B2A0F13002D2B2092AA0F161011D
:10429C00F3D90529A0F14102A0F15701A0F1370093
:1042AC00E8D8CAB2E9E7374B1878002835D0364F32
:1042BC0000233A4603E00133D9B288422DD9117854
:1042CC0002F58272A142F6D103EB831307EB830351
:1042DC002B445E70354800F07DF8284600F090F8CD
:1042EC002B4800F077F8304600F08AF8294800F0A7
:1042FC0071F87FE72E4800F06DF82E4800F06AF850
:10430C002D4800F067F82D4800F064F82C4800F0B8
:10431C0061F82C4800F05EF86CE72B4800F05AF876
:10432C0068E7184B1D78F5B1174F03463A4603E082
:10433C000133D9B2A94216D2117802F58272A14288
:10434C00F6D103EB83139C00601C4FF480720021A8
:10435C003844FBF75DFE00223B191C48A3F80221F0
:10436C0000F038F846E71A4800F034F842E700BF8E
:10437C007487000870700008808700088C8700081C
:10438C0094700008780200207C0200209C870008B2
:10439C00D0680008EC6000083488000874700008CD
:1043AC00A8870008D071000894710008988700084D
:1043BC00387A0008547A0008C8870008E487000897
:1043CC00088800081C880008B0710008B087000835
:1043DC005088000838B503787BB10546074C80211E
:1043EC00204600F0B9FB0028F9D015F8011B204637
:1043FC0000F0AAFB2B78002BF1D138BD003801401E
:10440C00002370B5064686B0144D01AC8DF8023011
:10441C000FCD0FC42B6806AA237006F00F031833B8
:10442C0002EB16166B4416F8145C13F8143C8DF85A
:10443C0000508DF801307DB16E46094C802120462C
:10444C0000F08AFB0028F9D02946204600F07CFBBE
:10445C0016F8015F002DF1D106B070BD385A000876
:10446C000038014010B50446000AFFF7C9FFE0B25E
:10447C00BDE81040FFF7C4BF70B5012186B004251C
:10448C001C2000F0C5FA4FF4204241F603034FF410
:10449C0080440DEB05013848ADF80420ADF806302A
:1044AC0000F060F90DEB05013348ADF804408DF8D0
:1044BC00075000F057F9072341F203024FF400565E
:1044CC000DEB05012D48ADF80620ADF8043000F0D9
:1044DC0049F90DEB05012A48ADF8046000F042F9EA
:1044EC003146274800F0AEF90121244800F0AAF922
:1044FC000221224800F0A6F92946204800F0A2F932
:10450C0008211E4800F09EF90121204600F08CFA8B
:10451C000DEB050000F050FB4FF4827500231022C8
:10452C004FF40074174801A9ADF80430ADF8083009
:10453C00ADF81230ADF81020ADF80A30ADF80C30F3
:10454C00ADF80650ADF80E4000F00CFB01210D4803
:10455C0000F03EFBB4230093009B5A1E00922BB13B
:10456C0000BF009B5A1E0092002BF9D14FF0FF3276
:10457C00054B1A6006B070BD000C014000080140EC
:10458C00001001400038004064000020C3B2042B2E
:10459C0000F2A080F0B5044687B049B94F4D2868A9
:1045AC00431C1CD0201A18BF4FF0FF3007B0F0BDD1
:1045BC004FF461730493049B5A1E04922BB100BFF9
:1045CC00049B5A1E0492002BF9D1444D2868844256
:1045DC0063D0013018BF4FF0FF3007B0F0BD4FF47F
:1045EC0000513F4800F02EF901213E4800F02AF915
:1045FC0002213C4800F026F904213A4800F022F947
:10460C000821384800F01EF9B4230393039B5A1E6B
:10461C0003922BB100BF039B5A1E0392002BF9D1BE
:10462C00012C55D0022C0CBF182710272E4E002120
:10463C00304600F0CDFA338801219BB223F03803C9
:10464C003B433380304600F0C3FA4FF4617302935E
:10465C00029B5A1E02922BB100BF029B5A1E029261
:10466C00002BF9D1214B04EB440203EB820153F8EC
:10467C002200898800F0E8F84FF4E1630193019B74
:10468C005A1E01922BB100BF019B5A1E0192002BA6
:10469C00F9D100202C6007B0F0BD144B04EB44049E
:1046AC0003EB8402918853F8240000F0CBF8B42378
:1046BC004FF0FF320593059B2A609A1805922BB197
:1046CC0000BF059B5A1E0592002BF9D100206DE707
:1046DC000827ABE74FF0FF30704700BF64000020A5
:1046EC000010014000080140003800408488000898
:1046FC0070B50E46194C1A4D82B001E0013C06D340
:10470C000221284600F078FA0028F7D014B331467D
:10471C00134800F06BFA114C114D01E0013C06D32B
:10472C000121284600F068FA0028F7D094B10C4813
:10473C0000F05EFA4FF4B4730193019BC0B25A1EA1
:10474C00019243B100BF019B5A1E0192002BF9D17B
:10475C0002B070BDFF2002B070BD00BFA08601008A
:10476C00003800402DE9F04191F803C01CF0100F07
:10477C0018BF8B7809880CF00F0518BF1D43CBB2FE
:10478C001BB3002301264FF00F08046802E001332D
:10479C00082B19D006FA03F232EA0107F7D14FEAD7
:1047AC00830E08FA0EF724EA070405FA0EFEBCF194
:1047BC00280F4EEA040432D0BCF1480F03F1010378
:1047CC0008BF0261082BE5D10460FF2925D900231D
:1047DC0001264FF00F08446802E00133082B1BD070
:1047EC0003F1080206FA02F232EA0107F5D14FEAA8
:1047FC00830E08FA0EF724EA070405FA0EFEBCF144
:10480C00280F4EEA04040CD0BCF1480F03F101034D
:10481C0008BF0261082BE3D14460BDE8F08142611E
:10482C00B5E74261D9E700BF4FF6FF7240F2024391
:10483C0002804380704700BFC368194214BF012037
:10484C000020704701617047416170470AB10161F6
:10485C0070474161704700BF4FF41F000C4B0D4A6D
:10486C00196841F00101196059680A405A601A68C8
:10487C0022F0847222F480321A601A6822F48022A8
:10488C001A605A6822F4FE025A609860704700BFA2
:10489C00001002400000FFF80C4BB0F5803F1A6886
:1048AC0022F480321A601A6822F480221A6008D02E
:1048BC00B0F5802F04D11A6842F4A0221A60704718
:1048CC0070471A6842F480321A6070470010024038
:1048DC00002382B00949019300E04AB90A68019BA0
:1048EC0002F4003201330193019BB3F5A06FF4D1B4
:1048FC00024B1868C0F3404002B0704700100240F1
:10490C00034A536823F47C130B43034353607047EF
:10491C0000100240014B1866704700BF0000424275
:10492C00034A536823F0030303435360704700BFEB
:10493C0000100240024B586800F00C00704700BF9A
:10494C0000100240034A536823F0F0030343536002
:10495C00704700BF00100240034A536823F4E06321
:10496C0003435360704700BF00100240034A536872
:10497C0023F4605343EAC0035360704700100240B5
:10498C001E4A10B4536803F00C03082B21D01C4AA8
:10499C0013460260194A1B4C5168C1F30311615C48
:1049AC00CB4043605168C1F30221615C23FA01F1F1
:1049BC0081605168C1F3C221645C1349E340C36058
:1049CC00526810BCC2F381328A5CB3FBF2F3036110
:1049DC00704753685168C3F38343C90303F102035F
:1049EC0007D55268920304D4054A02FB03F3036013
:1049FC00D0E7064A02FB03F30360CBE7001002404A
:104A0C0000127A00C4880008C088000800093D0024
:104A1C00044A936911B118439061704723EA00006E
:104A2C009061704700100240044AD36911B11843D9
:104A3C00D061704723EA0000D0617047001002403B
:104A4C004309012B0BD0022B094B00F01F000CBFAC
:104A5C001B6A5B6A23FA00F000F001007047044BFC
:104A6C0000F01F001B6823FA00F000F001007047F3
:104A7C000010024030B504460D46238ACA889BB20A
:104A8C0023F4405313438A892382A389898823F40E
:104A9C00B05323F00C031B041B0C0B43298987B068
:104AAC000B43698901A80B439BB2A381A38A9BB2D8
:104ABC0023F440731343A382FFF762FFDDE9033253
:104ACC00184919488C4208BF1346A28903EB83038B
:104ADC0012F4004F2A6803EB830314BF52009200B8
:104AEC00B3FBF2F36425A0FB0321490905FB113349
:104AFC000A01A18909040AD41B013233A0FB031358
:104B0C00C3F3431313439BB2238107B030BDDB00C7
:104B1C003233A0FB0313C3F3421313439BB2238121
:104B2C0007B030BD003801401F85EB51838921B19E
:104B3C009BB243F400538381704723F400531B044E
:104B4C001B0C8381704700BFC1F308018180704743
:104B5C008088C0F3080070470388194214BF0120F5
:104B6C0000207047B1F802C00B888A8843EA0C0316
:104B7C00B1F806C013430A8943EA0C0300B5B1F837
:104B8C000AE0B1F80CC0134343EA0E03028843EA6F
:104B9C000C03B1F80EC002F4415243EA0C03134368
:104BAC009BB20380838B0A8A23F400631B041B0CC7
:104BBC00838302825DF804FB002307220380438079
:104BCC008380C380038143818381C38102827047C8
:104BDC00038821B19BB243F040030380704723F05C
:104BEC0040031B041B0C0380704700BF818170477E
:104BFC00808980B2704700BF0389194214BF01201D
:104C0C0000207047034A136803F038030343136012
:104C1C00704700BF00200240044B196821F01001BE
:104C2C0019601A6802431A60704700BF00200240E6
:104C3C0010B400204FF41F04394A3A4B116883B06A
:104C4C0041F00101116051680B405360136823F06F
:104C5C00847323F480331360136823F4802313606C
:104C6C00536823F4FE035360946000900190136822
:104C7C0043F48033136003E0009BB3F5A06F09D0BD
:104C8C00136803F400330193009B01330093019BE1
:104C9C00002BF1D0224B1B6813F4003318BF0123F7
:104CAC000193019B012B06D04FF000621E4B9A60C2
:104CBC0003B010BC70471D4A194B116841F010012C
:104CCC001160116821F003011160116841F00201BB
:104CDC0011605A685A605A685A605A6842F4806285
:104CEC005A605A6822F47C125A605A6842F4E812EC
:104CFC005A601A6842F080721A601A689201FCD5E8
:104D0C005968074A21F003015960596841F00201C2
:104D1C005960536803F00C03082BFAD1C4E700BFA9
:104D2C00001002400000FFF800ED00E000200240FF
:104D3C00FEE700BF0F48104A08B5904207D2013A6F
:104D4C00121A22F003020D49043200F035F80C4817
:104D5C000C4A904207D2013A121A22F003020021A7
:104D6C000432FBF755F9084B0BB1FFF761FFFBF76A
:104D7C00EFFAFEE700000020680000202089000800
:104D8C00680000209D1600203D4C00080849094A87
:104D9C000B68002B08BF134602F580521844904252
:104DAC0026BF0B604FF0FF3308601846704700BFFA
:104DBC008C1600208C0600200A44914200F1FF332F
:104DCC0000D1704710B511F8014B914203F8014F17
:104DDC00F9D110BD0EB46FF0004100B59CB01DAB05
:104DEC0002900690079104910848094953F8042B46
:104DFC000591006802A9019300F086F80022029B3D
:104E0C001A701CB05DF804EB03B070470000002072
:104E1C000802FFFF10F8012B11F8013B012A28BFF3
:104E2C009A42F7D0D01A7047034610B572B10139C7
:104E3C00841813F8010B11F8012F904201D1A342F1
:104E4C0001D1801A10BD0028F3D1FAE71046F9E71A
:104E5C002DE9F0478E6882469E420C4690461F46CE
:104E6C0038D88A8912F4906F32D0256809690133D9
:104E7C00A5EB010965694B4405EB450505EBD575BB
:104E8C006D109D4238BF1D46530531D5294600F0A3
:104E9C0061FB064650B90C234FF0FF30CAF80030C6
:104EAC00A38943F04003A381BDE8F0874A462169FA
:104EBC00FFF782FFA38923F4906343F08003A3815F
:104ECC0026614E4426603E466561A5EB0905A5604A
:104EDC00BE4200D93E4632464146206800F0B8FA40
:104EEC00A36800209B1BA360236833442360DBE78B
:104EFC002A4600F0A3FB06460028E1D15046216962
:104F0C0000F0C0FAC7E700002DE9F04F98468B89F6
:104F1C0007461B060D4614469DB00ED50B6963B9AA
:104F2C00402100F017FB2860286120B90C233B605E
:104F3C004FF0FF30D1E040236B6100230993202315
:104F4C008DF8293030234FF00109CDF80C80DFF8B3
:104F5C00A4818DF82A3023469A4613F8012B0AB106
:104F6C00252AF9D1BAEB040B0BD05B462246294615
:104F7C003846FFF76DFF013000F0AA80099A5A44B9
:104F8C0009929AF80030002B00F0A28000234FF019
:104F9C00FF32CDE905230AF1010A049307938DF83A
:104FAC0053301A935446052214F8011B514800F053
:104FBC0041FA049AD8B9D00644BF20238DF8533057
:104FCC00110744BF2B238DF853309AF800302A2B4D
:104FDC0015D0544600204FF00A0C079A214611F8C0
:104FEC00013B303B092B4ED9B0B1079214E0A0EB3A
:104FFC00080309FA03F31343A2460493D2E7039B75
:10500C00191D1B680391002BBBBF5B4242F00202CF
:10501C0007930793B8BF049223782E2B0CD1637897
:10502C002A2B35D1039B02341A1D1B680392002BCB
:10503C00B8BF4FF0FF330593DFF8BCA003225046F6
:10504C00217800F0F7F940B14023A0EB0A0003FAF5
:10505C0000F0049B01340343049314F8011B062253
:10506C0026488DF8281000F0E5F9002838D0244B9C
:10507C001BBB039B073323F0070308330393099BE4
:10508C003344099367E70C4601200CFB0232A5E779
:10509C0000234FF00A0C194601340593204610F8F2
:1050AC00012B303A092A03D9002BC5D00591C3E74F
:1050BC00044601230CFB0121F0E703AB00932A46C5
:1050CC003846104B04A9AFF30080421C0646D6D1DB
:1050DC00AB895B063FF52CAF09981DB0BDE8F08F8E
:1050EC0003AB00932A463846064B04A900F07CF823
:1050FC00EBE700BFD4880008DA880008DE880008D7
:10510C00000000005D4E00082DE9F0471646994658
:10511C008A680B6907469342B8BF1346336091F80F
:10512C0043200C46DDF820800AB10133336023683C
:10513C00990642BF336802333360256815F00605C3
:10514C0006D104F1190AE36832689B1AAB4228DCD9
:10515C0094F84320131E226818BF012392062DD405
:10516C004946384604F14302C047013020D0236839
:10517C00E56803F00603042B18BF002532684FF0D6
:10518C000006A36808BFAD1A226908BF25EAE575B9
:10519C009342C4BF9B1AED181A34B5421AD10020A1
:1051AC0008E00123524649463846C047013003D136
:1051BC004FF0FF30BDE8F0870135C4E73020E1182F
:1051CC0081F843005A1C94F845102244023382F8AB
:1051DC004310C5E70123224649463846C0470130F3
:1051EC00E6D00136D9E700002DE9FF470F7E914646
:1051FC00782F80460C469A460C9D01F1430207D845
:10520C00622F0AD8002F00F0D980582F00F0A4800C
:10521C0004F1420584F842703AE0A7F16303152BC0
:10522C00F6D801A151F823F08D520008A1520008C4
:10523C001D5200081D5200081D5200081D52000886
:10524C00A15200081D5200081D5200081D520008F2
:10525C001D520008AF530008D152000891530008AA
:10526C001D5200081D520008D15300081D520008A1
:10527C00D15200081D5200081D5200089953000815
:10528C002B681A1D1B682A6004F1420584F8423011
:10529C000123A4E020682968060601F104030AD55D
:1052AC000E682B60002E03DA2D23764284F84330EF
:1052BC000A235E4819E00E6810F0400F2B6018BFEF
:1052CC0036B2EFE72B682068191D2960010601D55D
:1052DC001E6802E04606FBD51E886F2F0CBF082304
:1052EC000A235248002184F843106568002DA8BF9A
:1052FC002168A560A4BF21F0040121600EB9002D26
:10530C004DD01546B6FBF3F103FB1167C75D05F8ED
:10531C00017D3746BB420E46F4D9082B0BD12368CE
:10532C00DE0708D5236961689942DEBF302305F892
:10533C00013C05F1FF35521B22614B46214640468C
:10534C00CDF800A003AAFFF7DFFE01304CD14FF0DF
:10535C00FF3004B0BDE8F087344881F84570296807
:10536C00236851F8046B29601D0614D5DF0744BF70
:10537C0043F0200323601EB9236823F0200323602D
:10538C001023AFE7236843F02003236078232848D9
:10539C0084F84530E3E7590648BFB6B2E6E7154650
:1053AC00BBE72B682668181D6169286035061B68E9
:1053BC0001D5196002E07006FBD519800023154653
:1053CC002361BAE72B6800211A1D2A601D686268E8
:1053DC00284600F02FF808B1401B60606368236119
:1053EC00002384F84330A8E72A46494640462369FF
:1053FC00D0470130ABD023689B0713D4E068039BE4
:10540C009842B8BF1846A4E70123324649464046A5
:10541C00D04701309BD00135E36803995B1AAB424E
:10542C00F2DCEBE7002504F11906F5E7E588000846
:10543C00F6880008034610B5C9B2024493421846D8
:10544C0001D1002003E0047801338C42F6D110BD69
:10545C00884210B501EB020402D98442234607D8D6
:10546C00431EA14208D011F8012B03F8012FF8E7D5
:10547C00014602448A4200D110BD13F8014D02F8D6
:10548C00014DF7E738B50546002940D051F8043CEA
:10549C000C1F002BB8BFE41800F010F91C4A13685D
:1054AC0033B9636014602846BDE8384000F00CB98D
:1054BC00A34208D9206821188B4201BF19685B6888
:1054CC0009182160EDE71A465B680BB1A342FAD9C3
:1054DC0011685018A0420BD1206801445018834227
:1054EC001160E0D118685B68014411605360DAE721
:1054FC0002D90C232B60D6E7206821188B4201BF00
:10550C0019685B680918216063605460CBE738BD8B
:10551C009016002070B50E4E0C463168054611B938
:10552C0000F0BCF830602146284600F0B7F8431C68
:10553C000AD0C41C24F00304A04207D0211A284628
:10554C0000F0ACF8013001D14FF0FF34204670BDB3
:10555C00941600202DE9F041CD1C25F003050835EB
:10556C000C2D38BF0C25002D074601DBA94205D9AF
:10557C000C2300263B603046BDE8F0812E4E00F037
:10558C009DF833681C4634BB29463846FFF7C2FFEA
:10559C00431C04464DD134682646002E40D1236866
:1055AC003146384604EB030800F078F880453AD1D0
:1055BC00216803356D1A25F0030508350C2D38BF0D
:1055CC000C2538462946FFF7A5FF01302BD0236860
:1055DC002B4423600EE02268521B1ED40B2A16D9D2
:1055EC006119A342256018BF5960636808BF316018
:1055FC0062514B60384604F10B0600F065F826F05A
:10560C000706231DF21AB6D09B1BA350B3E76268A2
:10561C00A3420CBF32605A60ECE723466468B2E7E1
:10562C0034467668B9E70C2338463B6000F04CF8FA
:10563C00A1E72560DEE700BF901600202DE9F041C0
:10564C00804614460E4621B91146BDE8F041FFF7DD
:10565C0081BF2AB9FFF716FF25462846BDE8F08121
:10566C0000F038F88442074602D8B4EB500F12D839
:10567C0021464046FFF76EFF05460028EDD0BC42A0
:10568C002246314628BF3A46FFF796FB3146404644
:10569C00FFF7F8FEE1E73546DFE7000038B50023F9
:1056AC00054D044608462B60FFF770FB431C02D1E6
:1056BC002B6803B1236038BD98160020014800F018
:1056CC0011B800BF9C160020014800F00CB800BFB8
:1056DC009C16002051F8043C181F002BBCBF0B5823
:1056EC00C0187047704770470D0A5B41434B5D20F3
:1056FC004B6F6D757420616C696E64693A200000A3
:10570C000D0A4D6576637574204B6F6D75746C6105
:10571C00723A0D0A20206D6F64756C2D616C67698F
:10572C006C612020202020202020202020202020E0
:10573C002D3E204261676C69206D6F64756C6C65E1
:10574C00726920746172610D0A2020696F31363ADA
:10575C00534C4F543A4B4F4D555420202020202071
:10576C0020202020202D3E20494F3136206D6F64A3
:10577C00756C206B6F6E74726F6C750D0A202061E6
:10578C00696F32303A534C4F543A4B4F4D5554206D
:10579C002020202020202020202D3E2041494F3247
:1057AC0030206D6F64756C206B6F6E74726F6C75DE
:1057BC000D0A2020667067613A534C4F543A4B4F98
:1057CC004D555420202020202020202020202D3E0C
:1057DC002046504741206D6F64756C206B6F6E7462
:1057EC00726F6C750D0A202068656C70202020206B
:1057FC00202020202020202020202020202020209D
:10580C0020202D3E2042752079617264696D206DD7
:10581C006573616A690D0A0D0A4F726E656B3A0DFC
:10582C000A2020696F31363A303A7365743A353A4A
:10583C00686967682020202020202020202D3E2011
:10584C00536C6F7420302C2050696E2035203D2015
:10585C00484947480D0A202061696F32303A313A85
:10586C0072656164696E3A3320202020202020204C
:10587C0020202D3E20536C6F7420312C2041493355
:10588C00206F6B750D0A2020667067613A323A738F
:10589C00746174757320202020202020202020206B
:1058AC0020202D3E20536C6F74203220647572754D
:1058BC006D750D0A0D0A00000D0A42696C696E6D5A
:1058CC006579656E206B6F6D757421202768656C2A
:1058DC0070272079617A696E2E0D0A0D0A0000007E
:1058EC006D6F64756C2D616C67696C6100000000F4
:1058FC00696F31363A000000696F313600000000E4
:10590C0061696F32303A000061696F32300000001B
:10591C00667067613A000000667067610000000005
:10592C0068656C700000000079617264696D00003C
:10593C000D0A3D3D3D3D3D3D3D3D3D3D3D3D3D3DEE
:10594C003D3D3D3D3D3D3D3D3D3D3D3D3D3D3D3D7B
:10595C003D3D3D3D3D3D3D3D3D3D0D0A20204255EB
:10596C00524A555641204D4F544F5220434F4E549E
:10597C00524F4C4C45522076312E300D0A2020537C
:10598C00544D33324631303352435436202D20554A
:10599C0041525420436F6D6D616E64205379737462
:1059AC00656D0D0A3D3D3D3D3D3D3D3D3D3D3D3D26
:1059BC003D3D3D3D3D3D3D3D3D3D3D3D3D3D3D3D0B
:1059CC003D3D3D3D3D3D3D3D3D3D3D3D0D0A4B6F1E
:1059DC006D75746C61723A0D0A20206D6F64756C74
:1059EC002D616C67696C6120202D3E204D6F6475B4
:1059FC006C20616C67696C616D610D0A3D3D3D3DCC
:105A0C003D3D3D3D3D3D3D3D3D3D3D3D3D3D3D3DBA
:105A1C003D3D3D3D3D3D3D3D3D3D3D3D3D3D3D3DAA
:105A2C003D3D3D3D0D0A0D0A000000003031323382
:105A3C00343536373839414243444546000000007E
:105A4C00205B4255533A6265666F72653D000000FB
:105A5C002C61667465723D002C70726573656E63A3
:105A6C00653D00000D0A5B494E49545D204D6F6445
:105A7C00756C6520646574656374696F6E207379E9
:105A8C007374656D20696E697469616C697A65649B
:105A9C000D0A00005B494E49545D20445754206365
:105AAC0079636C6520636F756E74657220656E61C9
:105ABC00626C65640D0A00005B494E49545D2031EF
:105ACC002D57697265204750494F20636F6E666988
